:100000000C942A000C943F000C943F000C943F0089
:100010000C943F000C943F000C943F000C943F0064
:100020000C943F000C943F000C943F000C943F0054
:100030000C943F000C943F000C943F000C943F0044
:100040000C943F000C943F000C943F000C943F0034
:100050000C943F0011241FBECFE5D8E0DEBFCDBF1A
:1000600010E0A0E6B0E0E6EAF4E102C005900D92EF
:10007000A03AB107D9F70E9441000C94510A0C94A0
:100080000000CF93DF93CDB7DEB7AED541E050E0AF
:1000900060E070E080E090E066D3F8CFCF93DF932C
:1000A000CDB7DEB728970FB6F894DEBF0FBECDBF31
:1000B0009C838B837E836D8358874F8381E090E0A0
:1000C0009A8389838B819C81049728F082E090E059
:1000D0009A8389832DC28D819E81089728F083E0C1
:1000E00090E09A83898324C28F819885039728F0B2
:1000F00084E090E09A8389831BC28B819C81039763
:1001000009F496C18B819C81049708F010C28B8101
:100110009C81029709F40DC18B819C81039708F0A3
:1001200006C28B819C81892B31F08B819C81019748
:1001300009F480C0FCC18F819885029709F44DC0F5
:100140008F819885039708F073C08F819885892BDC
:1001500029F08F8198850197B1F06AC08AE390E019
:10016000E82FF92F8081282F81E090E00D8002C0D8
:10017000880F991F0A94E2F7282B8AE390E0E82F72
:10018000F92F208356C08AE390E0E82FF92F808171
:10019000282F81E090E00D8002C0880F991F0A94FB
:1001A000E2F7809528238AE390E0E82FF92F208357
:1001B0008BE390E0E82FF92F8081282F81E090E0F9
:1001C0000D8002C0880F991F0A94E2F7282B8BE359
:1001D00090E0E82FF92F20832CC08AE390E0E82FED
:1001E000F92F8081282F81E090E00D8002C0880FD8
:1001F000991F0A94E2F7809528238AE390E0E82F7C
:10020000F92F20838BE390E0E82FF92F8081282FAE
:1002100081E090E00D8002C0880F991F0A94E2F7F8
:10022000809528238BE390E0E82FF92F208301C0ED
:1002300000007EC18F819885029709F44DC08F819F
:100240009885039708F073C08F819885892B29F0D2
:100250008F8198850197B1F06AC087E390E0E82F1D
:10026000F92F8081282F81E090E00D8002C0880F57
:10027000991F0A94E2F7282B87E390E0E82FF92FE3
:10028000208356C087E390E0E82FF92F8081282F44
:1002900081E090E00D8002C0880F991F0A94E2F778
:1002A0008095282387E390E0E82FF92F208388E3C7
:1002B00090E0E82FF92F8081282F81E090E00D80D9
:1002C00002C0880F991F0A94E2F7282B88E390E078
:1002D000E82FF92F20832CC087E390E0E82FF92F37
:1002E0008081282F81E090E00D8002C0880F991F47
:1002F0000A94E2F78095282387E390E0E82FF92F0E
:10030000208388E390E0E82FF92F8081282F81E077
:1003100090E00D8002C0880F991F0A94E2F7809543
:10032000282388E390E0E82FF92F208301C0000004
:10033000FFC08F819885029709F44DC08F81988501
:10034000039708F073C08F819885892B29F08F81DE
:1003500098850197B1F06AC084E390E0E82FF92F07
:100360008081282F81E090E00D8002C0880F991FC6
:100370000A94E2F7282B84E390E0E82FF92F2083FA
:1003800056C084E390E0E82FF92F8081282F81E088
:1003900090E00D8002C0880F991F0A94E2F78095C3
:1003A000282384E390E0E82FF92F208385E390E071
:1003B000E82FF92F8081282F81E090E00D8002C086
:1003C000880F991F0A94E2F7282B85E390E0E82F25
:1003D000F92F20832CC084E390E0E82FF92F80814F
:1003E000282F81E090E00D8002C0880F991F0A94A9
:1003F000E2F78095282384E390E0E82FF92F20830B
:1004000085E390E0E82FF92F8081282F81E090E0AC
:100410000D8002C0880F991F0A94E2F78095282367
:1004200085E390E0E82FF92F208301C0000080C011
:100430008F819885029709F44DC08F819885039725
:1004400008F073C08F819885892B29F08F8198855A
:100450000197B1F06AC081E390E0E82FF92F808125
:10046000282F81E090E00D8002C0880F991F0A9428
:10047000E2F7282B81E390E0E82FF92F208356C084
:1004800081E390E0E82FF92F8081282F81E090E030
:100490000D8002C0880F991F0A94E2F780952823E7
:1004A00081E390E0E82FF92F208382E390E0E82FAA
:1004B000F92F8081282F81E090E00D8002C0880F05
:1004C000991F0A94E2F7282B82E390E0E82FF92F96
:1004D00020832CC081E390E0E82FF92F8081282F22
:1004E00081E090E00D8002C0880F991F0A94E2F726
:1004F0008095282381E390E0E82FF92F208382E381
:1005000090E0E82FF92F8081282F81E090E00D8086
:1005100002C0880F991F0A94E2F78095282382E38E
:1005200090E0E82FF92F208301C0000001C00000F7
:1005300089819A8128960FB6F894DEBF0FBECDBF91
:10054000DF91CF910895CF93DF9300D000D000D0FA
:10055000CDB7DEB79C838B837E836D8381E090E093
:100560009A8389838B819C81049728F082E090E0B4
:100570009A838983EDC08D819E81039728F084E062
:1005800090E09A838983E4C01A8219828B819C81CE
:10059000039709F4ABC08B819C81049708F0D7C006
:1005A0008B819C81029709F470C08B819C81039799
:1005B00008F0CDC08B819C81892B29F08B819C8197
:1005C000019791F1C4C08D819E81029701F18D81C7
:1005D0009E81039738F58D819E81892B29F08D812D
:1005E0009E81019741F01EC08AE390E02FEFE82F33
:1005F000F92F208318C08AE390E0E82FF92F1082AA
:100600008BE390E02FEFE82FF92F20830CC08AE3D3
:1006100090E0E82FF92F10828BE390E0E82FF92F7C
:10062000108201C0000094C08D819E81029701F16B
:100630008D819E81039738F58D819E81892B29F0CC
:100640008D819E81019741F01EC087E390E02FEFDE
:10065000E82FF92F208318C087E390E0E82FF92FC7
:10066000108288E390E02FEFE82FF92F20830CC051
:1006700087E390E0E82FF92F108288E390E0E82FDD
:10068000F92F108201C0000063C08D819E81029706
:1006900001F18D819E81039738F58D819E81892B93
:1006A00029F08D819E81019741F01EC084E390E086
:1006B0002FEFE82FF92F208318C084E390E0E82F74
:1006C000F92F108285E390E02FEFE82FF92F208398
:1006D0000CC084E390E0E82FF92F108285E390E0CE
:1006E000E82FF92F108201C0000032C08D819E8159
:1006F000029701F18D819E81039738F58D819E814E
:10070000892B29F08D819E81019741F01EC081E3E4
:1007100090E02FEFE82FF92F208318C081E390E0BD
:10072000E82FF92F108282E390E02FEFE82FF92FC6
:1007300020830CC081E390E0E82FF92F108282E340
:1007400090E0E82FF92F108201C0000001C00000E6
:1007500089819A8126960FB6F894DEBF0FBECDBF71
:10076000DF91CF910895CF93DF93CDB7DEB7289770
:100770000FB6F894DEBF0FBECDBF9C838B837E8304
:100780006D8358874F8381E090E09A8389838B81C2
:100790009C81049728F082E090E09A83898306C1C7
:1007A0008D819E81089728F083E090E09A83898369
:1007B000FDC08F819885029728F086E090E09A83AB
:1007C0008983F4C01A8219828B819C81039709F472
:1007D000B7C08B819C81049708F0E7C08B819C8116
:1007E000029709F478C08B819C81039708F0DDC0E3
:1007F0008B819C81892B29F08B819C810197B1F1A0
:10080000D4C08F819885892BC9F08F8198850197F5
:1008100059F58BE390E0E82FF92F8081282F81E0B4
:1008200090E00D8002C0880F991F0A94E2F7282BF0
:100830008BE390E0E82FF92F208317C08BE390E043
:10084000E82FF92F8081282F81E090E00D8002C0F1
:10085000880F991F0A94E2F7809528238BE390E094
:10086000E82FF92F208301C00000A0C08F81988558
:10087000892BC9F08F819885019759F588E390E01D
:10088000E82FF92F8081282F81E090E00D8002C0B1
:10089000880F991F0A94E2F7282B88E390E0E82F4D
:1008A000F92F208317C088E390E0E82FF92F80818B
:1008B000282F81E090E00D8002C0880F991F0A94D4
:1008C000E2F78095282388E390E0E82FF92F208332
:1008D00001C000006BC08F819885892BC9F08F8182
:1008E0009885019759F585E390E0E82FF92F8081ED
:1008F000282F81E090E00D8002C0880F991F0A9494
:10090000E2F7282B85E390E0E82FF92F208317C02A
:1009100085E390E0E82FF92F8081282F81E090E097
:100920000D8002C0880F991F0A94E2F78095282352
:1009300085E390E0E82FF92F208301C0000036C046
:100940008F819885892BC9F08F819885019759F5FA
:1009500082E390E0E82FF92F8081282F81E090E05A
:100960000D8002C0880F991F0A94E2F7282B82E3BA
:1009700090E0E82FF92F208317C082E390E0E82F62
:10098000F92F8081282F81E090E00D8002C0880F30
:10099000991F0A94E2F78095282382E390E0E82FDC
:1009A000F92F208301C0000001C0000089819A81D5
:1009B00028960FB6F894DEBF0FBECDBFDF91CF9162
:1009C0000895CF93DF9300D000D000D0CDB7DEB72D
:1009D0009C838B837E836D8381E090E09A838983FF
:1009E0008B819C81049728F082E090E09A83898330
:1009F00043C08D819E818F3F910531F028F086E0C4
:100A000090E09A83898338C01A8219828B819C81F5
:100A1000039751F18B819C81049768F58B819C81B0
:100A20000297D9F08B819C81039728F58B819C815B
:100A3000892B29F08B819C81019741F01CC08BE3AD
:100A400090E02D81E82FF92F208316C088E390E0F5
:100A50002D81E82FF92F20830FC085E390E02D81B1
:100A6000E82FF92F208308C082E390E02D81E82F42
:100A7000F92F208301C0000089819A8126960FB644
:100A8000F894DEBF0FBECDBFDF91CF910895CF9315
:100A9000DF93CDB7DEB728970FB6F894DEBF0FBE51
:100AA000CDBF9C838B837E836D8358874F8381E08A
:100AB00090E09A8389838B819C81049728F082E05F
:100AC00090E09A83898385C08D819E81089728F064
:100AD00083E090E09A8389837CC08F819885892BFD
:100AE00029F485E090E09A83898373C01A82198281
:100AF0008B819C81039709F456C08B819C8104975C
:100B000008F066C08B819C810297C1F18B819C812A
:100B1000039708F05DC08B819C81892B29F08B8124
:100B20009C810197B1F054C089E390E0E82FF92F40
:100B30008081882F90E00D8002C0959587950A945A
:100B4000E2F7282F21708F819885E82FF92F2083D5
:100B500040C086E390E0E82FF92F8081882F90E055
:100B60000D8002C0959587950A94E2F7282F217091
:100B70008F819885E82FF92F20832BC083E390E0A5
:100B8000E82FF92F8081882F90E00D8002C0959585
:100B900087950A94E2F7282F21708F819885E82F96
:100BA000F92F208316C080E390E0E82FF92F808191
:100BB000882F90E00D8002C0959587950A94E2F702
:100BC000282F21708F819885E82FF92F208301C06D
:100BD000000089819A8128960FB6F894DEBF0FBE77
:100BE000CDBFDF91CF910895CF93DF93CDB7DEB71F
:100BF0008AE390E02FEFE82FF92F208387E390E03E
:100C00002FEFE82FF92F208384E390E02FEFE82FD8
:100C1000F92F208381E390E02FEFE82FF92F208335
:100C20008BE390E02FEFE82FF92F208388E390E00B
:100C30002FEFE82FF92F208385E390E02FEFE82FA7
:100C4000F92F208382E390E02FEFE82FF92F208304
:100C50000000DF91CF910895CF93DF9300D000D0B3
:100C6000CDB7DEB79C838B831A8219828B819C81DE
:100C7000E82FF92F82819381089708F005C48B81B2
:100C80009C81E82FF92F808191818330910509F4AF
:100C9000FDC28430910508F0F2C38230910509F459
:100CA000FCC18330910508F0EAC3009721F0019759
:100CB00009F4FAC0E4C38B819C81E82FF92F848169
:100CC00095818330910509F4B3C08430910508F013
:100CD000E5C08230910509F476C08330910508F0B3
:100CE000DDC0009719F00197B9F1D8C08AE390E010
:100CF000E82FF92F8081482F8B819C81E82FF92FD5
:100D00002281338181E090E002C0880F991F2A95EB
:100D1000E2F78095242F28238AE390E0E82FF92F2B
:100D200020838BE390E0E82FF92F8081482F8B817F
:100D30009C81E82FF92F2281338181E090E002C06D
:100D4000880F991F2A95E2F7242F282B8BE390E038
:100D5000E82FF92F2083A7C08AE390E0E82FF92F2E
:100D60008081482F8B819C81E82FF92F228133814C
:100D700081E090E002C0880F991F2A95E2F78095E4
:100D8000242F28238AE390E0E82FF92F20838BE398
:100D900090E0E82FF92F8081482F8B819C81E82FEC
:100DA000F92F2281338181E090E002C0880F991FE2
:100DB0002A95E2F78095242F28238BE390E0E82FF3
:100DC000F92F208370C08AE390E0E82FF92F80810B
:100DD000482F8B819C81E82FF92F2281338181E07C
:100DE00090E002C0880F991F2A95E2F7242F282B44
:100DF0008AE390E0E82FF92F20838BE390E0E82F3F
:100E0000F92F8081482F8B819C81E82FF92F228137
:100E1000338181E090E002C0880F991F2A95E2F7A4
:100E2000242F282B8BE390E0E82FF92F20833BC061
:100E30008AE390E0E82FF92F8081482F8B819C81F5
:100E4000E82FF92F2281338181E090E002C0880FE2
:100E5000991F2A95E2F7242F282B8AE390E0E82FA8
:100E6000F92F20838BE390E0E82FF92F8081482F22
:100E70008B819C81E82FF92F2281338181E090E0E2
:100E800002C0880F991F2A95E2F78095242F282306
:100E90008BE390E0E82FF92F208305C083E090E0FA
:100EA0009A8389830000F4C28B819C81E82FF92FFB
:100EB000848195818330910509F4B3C08430910514
:100EC00008F0E5C08230910509F476C083309105C1
:100ED00008F0DDC0009719F00197B9F1D8C087E399
:100EE00090E0E82FF92F8081482F8B819C81E82F9B
:100EF000F92F2281338181E090E002C0880F991F91
:100F00002A95E2F78095242F282387E390E0E82FA5
:100F1000F92F208388E390E0E82FF92F8081482F74
:100F20008B819C81E82FF92F2281338181E090E031
:100F300002C0880F991F2A95E2F7242F282B88E3F7
:100F400090E0E82FF92F2083A7C087E390E0E82FF7
:100F5000F92F8081482F8B819C81E82FF92F2281E6
:100F6000338181E090E002C0880F991F2A95E2F753
:100F70008095242F282387E390E0E82FF92F208302
:100F800088E390E0E82FF92F8081482F8B819C81A6
:100F9000E82FF92F2281338181E090E002C0880F91
:100FA000991F2A95E2F78095242F282388E390E063
:100FB000E82FF92F208370C087E390E0E82FF92F06
:100FC0008081482F8B819C81E82FF92F22813381EA
:100FD00081E090E002C0880F991F2A95E2F7242F44
:100FE000282B87E390E0E82FF92F208388E390E017
:100FF000E82FF92F8081482F8B819C81E82FF92FD2
:101000002281338181E090E002C0880F991F2A95E8
:10101000E2F7242F282B88E390E0E82FF92F208394
:101020003BC087E390E0E82FF92F8081482F8B8128
:101030009C81E82FF92F2281338181E090E002C06A
:10104000880F991F2A95E2F7242F282B87E390E039
:10105000E82FF92F208388E390E0E82FF92F808193
:10106000482F8B819C81E82FF92F2281338181E0E9
:1010700090E002C0880F991F2A95E2F78095242FEF
:10108000282388E390E0E82FF92F208305C083E030
:1010900090E09A8389830000FBC18B819C81E82FBB
:1010A000F92F848195818330910509F4B3C0843090
:1010B000910508F0E5C08230910509F476C08330CF
:1010C000910508F0DDC0009719F00197B9F1D8C07B
:1010D00084E390E0E82FF92F8081482F8B819C8159
:1010E000E82FF92F2281338181E090E002C0880F40
:1010F000991F2A95E2F78095242F282384E390E016
:10110000E82FF92F208385E390E0E82FF92F8081E5
:10111000482F8B819C81E82FF92F2281338181E038
:1011200090E002C0880F991F2A95E2F7242F282B00
:1011300085E390E0E82FF92F2083A7C084E390E0B7
:10114000E82FF92F8081482F8B819C81E82FF92F80
:101150002281338181E090E002C0880F991F2A9597
:10116000E2F78095242F282384E390E0E82FF92FDD
:10117000208385E390E0E82FF92F8081482F8B8131
:101180009C81E82FF92F2281338181E090E002C019
:10119000880F991F2A95E2F78095242F282385E34D
:1011A00090E0E82FF92F208370C084E390E0E82FCF
:1011B000F92F8081482F8B819C81E82FF92F228184
:1011C000338181E090E002C0880F991F2A95E2F7F1
:1011D000242F282B84E390E0E82FF92F208385E348
:1011E00090E0E82FF92F8081482F8B819C81E82F98
:1011F000F92F2281338181E090E002C0880F991F8E
:101200002A95E2F7242F282B85E390E0E82FF92F89
:1012100020833BC084E390E0E82FF92F8081482FA2
:101220008B819C81E82FF92F2281338181E090E02E
:1012300002C0880F991F2A95E2F7242F282B84E3F8
:1012400090E0E82FF92F208385E390E0E82FF92F35
:101250008081482F8B819C81E82FF92F2281338157
:1012600081E090E002C0880F991F2A95E2F78095EF
:10127000242F282385E390E0E82FF92F208305C051
:1012800083E090E09A838983000002C18B819C8176
:10129000E82FF92F848195818330910509F4B3C03B
:1012A0008430910508F0E5C08230910509F476C0DC
:1012B0008330910508F0DDC0009719F00197B9F16E
:1012C000D8C081E390E0E82FF92F8081482F8B81EF
:1012D0009C81E82FF92F2281338181E090E002C0C8
:1012E000880F991F2A95E2F78095242F282381E300
:1012F00090E0E82FF92F208382E390E0E82FF92F88
:101300008081482F8B819C81E82FF92F22813381A6
:1013100081E090E002C0880F991F2A95E2F7242F00
:10132000282B82E390E0E82FF92F2083A7C081E3E8
:1013300090E0E82FF92F8081482F8B819C81E82F46
:10134000F92F2281338181E090E002C0880F991F3C
:101350002A95E2F78095242F282381E390E0E82F57
:10136000F92F208382E390E0E82FF92F8081482F26
:101370008B819C81E82FF92F2281338181E090E0DD
:1013800002C0880F991F2A95E2F78095242F282301
:1013900082E390E0E82FF92F208370C081E390E092
:1013A000E82FF92F8081482F8B819C81E82FF92F1E
:1013B0002281338181E090E002C0880F991F2A9535
:1013C000E2F7242F282B81E390E0E82FF92F2083E8
:1013D00082E390E0E82FF92F8081482F8B819C8158
:1013E000E82FF92F2281338181E090E002C0880F3D
:1013F000991F2A95E2F7242F282B82E390E0E82F0B
:10140000F92F20833BC081E390E0E82FF92F808102
:10141000482F8B819C81E82FF92F2281338181E035
:1014200090E002C0880F991F2A95E2F7242F282BFD
:1014300081E390E0E82FF92F208382E390E0E82F0A
:10144000F92F8081482F8B819C81E82FF92F2281F1
:10145000338181E090E002C0880F991F2A95E2F75E
:101460008095242F282382E390E0E82FF92F208312
:1014700005C083E090E09A838983000009C082E080
:1014800090E09A83898304C081E090E09A83898305
:1014900089819A810F900F900F900F90DF91CF91DB
:0614A0000895F894FFCF4F
:1014A600030003000300030003000300030003001E
:1014B600030003000300030003000300030003000E
:1014C6000000000000000000000000000000000016
:1014D6000000000000000000000000000000000006
:00000001FF
